{
 "metadata": {
  "language_info": {
   "codemirror_mode": {
    "name": "ipython",
    "version": 3
   },
   "file_extension": ".py",
   "mimetype": "text/x-python",
   "name": "python",
   "nbconvert_exporter": "python",
   "pygments_lexer": "ipython3",
   "version": "3.7.9-final"
  },
  "orig_nbformat": 2,
  "kernelspec": {
   "name": "python3",
   "display_name": "Python 3.7.9 64-bit ('ethereum': conda)",
   "metadata": {
    "interpreter": {
     "hash": "feabcdad2880a12371d0452ba9bbac503ceb2166a3b988915bc674916ab3c265"
    }
   }
  }
 },
 "nbformat": 4,
 "nbformat_minor": 2,
 "cells": [
  {
   "cell_type": "code",
   "execution_count": 70,
   "metadata": {},
   "outputs": [],
   "source": [
    "import os\n",
    "from web3 import Web3\n",
    "from dotenv import load_dotenv\n",
    "from web3.middleware import geth_poa_middleware\n",
    "from eth_account import Account"
   ]
  },
  {
   "cell_type": "code",
   "execution_count": 71,
   "metadata": {},
   "outputs": [],
   "source": [
    "from pathlib import Path\n",
    "from getpass import getpass"
   ]
  },
  {
   "cell_type": "code",
   "execution_count": 72,
   "metadata": {},
   "outputs": [],
   "source": [
    "from constants import BTC\n",
    "from constants import ETH\n",
    "from constants import BTCTEST\n",
    "from constants import LTC"
   ]
  },
  {
   "cell_type": "code",
   "execution_count": 73,
   "metadata": {},
   "outputs": [
    {
     "output_type": "execute_result",
     "data": {
      "text/plain": [
       "True"
      ]
     },
     "metadata": {},
     "execution_count": 73
    }
   ],
   "source": [
    "load_dotenv()"
   ]
  },
  {
   "cell_type": "code",
   "execution_count": 74,
   "metadata": {},
   "outputs": [],
   "source": [
    "w3 = Web3(Web3.HTTPProvider(\"http://127.0.0.1:8545\"))\n",
    "w3.middleware_onion.inject(geth_poa_middleware, layer=0)"
   ]
  },
  {
   "cell_type": "code",
   "execution_count": 75,
   "metadata": {},
   "outputs": [
    {
     "output_type": "execute_result",
     "data": {
      "text/plain": [
       "<eth_account.signers.local.LocalAccount at 0x227939360c8>"
      ]
     },
     "metadata": {},
     "execution_count": 75
    }
   ],
   "source": [
    "account_one = Account.from_key(\"0x409229a3e6d2a00c67c48dc73f5ce61efb848c1faef8d4ad5009c6d300adab79\")\n",
    "account_one"
   ]
  },
  {
   "cell_type": "code",
   "execution_count": 76,
   "metadata": {},
   "outputs": [
    {
     "output_type": "execute_result",
     "data": {
      "text/plain": [
       "eth_account.signers.local.LocalAccount"
      ]
     },
     "metadata": {},
     "execution_count": 76
    }
   ],
   "source": [
    "type(account_one)"
   ]
  },
  {
   "cell_type": "code",
   "execution_count": 77,
   "metadata": {},
   "outputs": [],
   "source": [
    "def priv_key_to_account (coin,priv_key):\n",
    "    \"\"\"\n",
    "    This function return the address of a wallet\n",
    "    given its corresponding private key\n",
    "    \"\"\"\n",
    "    if coin==ETH:\n",
    "        account_address = Account.privateKeyToAccount(priv_key).address\n",
    "    if coin==BTCTEST:\n",
    "        account_address = PrivateKeyTestnet(priv_key).address\n",
    "    if coin==BTC:\n",
    "        account_address = PrivateKey(priv_key).address\n",
    "\n",
    "    return account_address"
   ]
  },
  {
   "cell_type": "code",
   "execution_count": 78,
   "metadata": {},
   "outputs": [
    {
     "output_type": "execute_result",
     "data": {
      "text/plain": [
       "'0xef7AF838023A8710F697fFc4C5AbcbDE8610234c'"
      ]
     },
     "metadata": {},
     "execution_count": 78
    }
   ],
   "source": [
    "sender_address = priv_key_to_account(ETH,\"0x409229a3e6d2a00c67c48dc73f5ce61efb848c1faef8d4ad5009c6d300adab79\")\n",
    "sender_address"
   ]
  },
  {
   "cell_type": "code",
   "execution_count": 79,
   "metadata": {},
   "outputs": [],
   "source": [
    "def create_tx(sender_acc_priv_key,recipient_address,amount,coin):\n",
    "    if coin==ETH:\n",
    "        my_address_to_display = priv_key_to_account(coin,sender_acc_priv_key)\n",
    "        gasEstimate = w3.eth.estimateGas(\n",
    "            {\"from\": my_address_to_display, \"to\": recipient_address, \"value\": amount}\n",
    "        )\n",
    "        my_gas_incentive = gasEstimate\n",
    "        return {\n",
    "            \"from\": my_address_to_display,\n",
    "            \"to\": recipient_address,\n",
    "            \"value\": amount,\n",
    "            \"gasPrice\": w3.eth.gasPrice,\n",
    "            \"gas\": my_gas_incentive,\n",
    "            \"nonce\": w3.eth.getTransactionCount(my_address_to_display),\n",
    "        }"
   ]
  },
  {
   "cell_type": "code",
   "execution_count": 85,
   "metadata": {},
   "outputs": [
    {
     "output_type": "execute_result",
     "data": {
      "text/plain": [
       "{'from': '0x48566d313CDC067187Ca36E7a5991C442DF67EF0',\n",
       " 'to': '0x454453A0732CBE6c1009342E580Fd76a4F8EF1C7',\n",
       " 'value': 5000000,\n",
       " 'gasPrice': 1000000000,\n",
       " 'gas': 21000,\n",
       " 'nonce': 0}"
      ]
     },
     "metadata": {},
     "execution_count": 85
    }
   ],
   "source": [
    "prep_tran = create_tx(\"0x6ef4ae58135895c82bd476596dcbe60366b007f3ac9f3d747db840a79f538ab0\",'0x454453A0732CBE6c1009342E580Fd76a4F8EF1C7',5000000, ETH)\n",
    "prep_tran"
   ]
  },
  {
   "cell_type": "code",
   "execution_count": 89,
   "metadata": {},
   "outputs": [
    {
     "output_type": "execute_result",
     "data": {
      "text/plain": [
       "<eth_account.signers.local.LocalAccount at 0x227939870c8>"
      ]
     },
     "metadata": {},
     "execution_count": 89
    }
   ],
   "source": [
    "signer_key = Account.from_key(\"0x6ef4ae58135895c82bd476596dcbe60366b007f3ac9f3d747db840a79f538ab0\")\n",
    "signer_key"
   ]
  },
  {
   "cell_type": "code",
   "execution_count": 90,
   "metadata": {},
   "outputs": [
    {
     "output_type": "execute_result",
     "data": {
      "text/plain": [
       "SignedTransaction(rawTransaction=HexBytes('0xf86680843b9aca0082520894454453a0732cbe6c1009342e580fd76a4f8ef1c7834c4b40801ca07344bc5cba04936bd6f0fee455d0cea110de677a1ddb00f7f83c7ef5e9406506a00ca7051d46a843ee66235c2cb090ab9cf3f2417d9639364b23d4b61fe0bac014'), hash=HexBytes('0x875a441ebeedd492118e2d70762d59a0fb552f02e9799d72c3d40ab053093c59'), r=52137423215698823452916538716622341839262458043918361269497717703630684972294, s=5722852940828454913217883464321733570650707868219722970319674110283557290004, v=28)"
      ]
     },
     "metadata": {},
     "execution_count": 90
    }
   ],
   "source": [
    "signed_tx = signer_key.sign_transaction(prep_tran)\n",
    "signed_tx"
   ]
  },
  {
   "cell_type": "code",
   "execution_count": 91,
   "metadata": {},
   "outputs": [
    {
     "output_type": "execute_result",
     "data": {
      "text/plain": [
       "HexBytes('0x875a441ebeedd492118e2d70762d59a0fb552f02e9799d72c3d40ab053093c59')"
      ]
     },
     "metadata": {},
     "execution_count": 91
    }
   ],
   "source": [
    "result =w3.eth.sendRawTransaction(signed_tx.rawTransaction)\n",
    "result"
   ]
  },
  {
   "cell_type": "code",
   "execution_count": 95,
   "metadata": {},
   "outputs": [
    {
     "output_type": "execute_result",
     "data": {
      "text/plain": [
       "'0x875a441ebeedd492118e2d70762d59a0fb552f02e9799d72c3d40ab053093c59'"
      ]
     },
     "metadata": {},
     "execution_count": 95
    }
   ],
   "source": [
    "result.hex()"
   ]
  },
  {
   "cell_type": "code",
   "execution_count": 104,
   "metadata": {},
   "outputs": [],
   "source": [
    "import time"
   ]
  },
  {
   "cell_type": "code",
   "execution_count": 105,
   "metadata": {},
   "outputs": [],
   "source": [
    "def send_tx(sender_acc_priv_key,recipient_address,amount,coin):\n",
    "    tx = create_tx(sender_acc_priv_key,recipient_address,amount,coin)\n",
    "    signer_key = Account.from_key(sender_acc_priv_key)\n",
    "    signed_tx = signer_key.sign_transaction(tx)\n",
    "    time.sleep(20)\n",
    "    result = w3.eth.sendRawTransaction(signed_tx.rawTransaction)\n",
    "    print(result.hex())\n",
    "    return result.hex()"
   ]
  },
  {
   "cell_type": "code",
   "execution_count": 106,
   "metadata": {},
   "outputs": [
    {
     "output_type": "error",
     "ename": "ValueError",
     "evalue": "{'code': -32000, 'message': 'replacement transaction underpriced'}",
     "traceback": [
      "\u001b[1;31m---------------------------------------------------------------------------\u001b[0m",
      "\u001b[1;31mValueError\u001b[0m                                Traceback (most recent call last)",
      "\u001b[1;32m<ipython-input-106-baf03a6e5e60>\u001b[0m in \u001b[0;36m<module>\u001b[1;34m\u001b[0m\n\u001b[1;32m----> 1\u001b[1;33m \u001b[0msend_tx\u001b[0m\u001b[1;33m(\u001b[0m\u001b[1;34m\"0x6ef4ae58135895c82bd476596dcbe60366b007f3ac9f3d747db840a79f538ab0\"\u001b[0m\u001b[1;33m,\u001b[0m\u001b[1;34m'0x454453A0732CBE6c1009342E580Fd76a4F8EF1C7'\u001b[0m\u001b[1;33m,\u001b[0m\u001b[1;36m60000000\u001b[0m\u001b[1;33m,\u001b[0m \u001b[0mETH\u001b[0m\u001b[1;33m)\u001b[0m\u001b[1;33m\u001b[0m\u001b[1;33m\u001b[0m\u001b[0m\n\u001b[0m",
      "\u001b[1;32m<ipython-input-105-da966dcf2459>\u001b[0m in \u001b[0;36msend_tx\u001b[1;34m(sender_acc_priv_key, recipient_address, amount, coin)\u001b[0m\n\u001b[0;32m      4\u001b[0m     \u001b[0msigned_tx\u001b[0m \u001b[1;33m=\u001b[0m \u001b[0msigner_key\u001b[0m\u001b[1;33m.\u001b[0m\u001b[0msign_transaction\u001b[0m\u001b[1;33m(\u001b[0m\u001b[0mtx\u001b[0m\u001b[1;33m)\u001b[0m\u001b[1;33m\u001b[0m\u001b[1;33m\u001b[0m\u001b[0m\n\u001b[0;32m      5\u001b[0m     \u001b[0mtime\u001b[0m\u001b[1;33m.\u001b[0m\u001b[0msleep\u001b[0m\u001b[1;33m(\u001b[0m\u001b[1;36m20\u001b[0m\u001b[1;33m)\u001b[0m\u001b[1;33m\u001b[0m\u001b[1;33m\u001b[0m\u001b[0m\n\u001b[1;32m----> 6\u001b[1;33m     \u001b[0mresult\u001b[0m \u001b[1;33m=\u001b[0m \u001b[0mw3\u001b[0m\u001b[1;33m.\u001b[0m\u001b[0meth\u001b[0m\u001b[1;33m.\u001b[0m\u001b[0msendRawTransaction\u001b[0m\u001b[1;33m(\u001b[0m\u001b[0msigned_tx\u001b[0m\u001b[1;33m.\u001b[0m\u001b[0mrawTransaction\u001b[0m\u001b[1;33m)\u001b[0m\u001b[1;33m\u001b[0m\u001b[1;33m\u001b[0m\u001b[0m\n\u001b[0m\u001b[0;32m      7\u001b[0m     \u001b[0mprint\u001b[0m\u001b[1;33m(\u001b[0m\u001b[0mresult\u001b[0m\u001b[1;33m.\u001b[0m\u001b[0mhex\u001b[0m\u001b[1;33m(\u001b[0m\u001b[1;33m)\u001b[0m\u001b[1;33m)\u001b[0m\u001b[1;33m\u001b[0m\u001b[1;33m\u001b[0m\u001b[0m\n\u001b[0;32m      8\u001b[0m     \u001b[1;32mreturn\u001b[0m \u001b[0mresult\u001b[0m\u001b[1;33m.\u001b[0m\u001b[0mhex\u001b[0m\u001b[1;33m(\u001b[0m\u001b[1;33m)\u001b[0m\u001b[1;33m\u001b[0m\u001b[1;33m\u001b[0m\u001b[0m\n",
      "\u001b[1;32m~\\anaconda3\\envs\\ethereum\\lib\\site-packages\\web3\\module.py\u001b[0m in \u001b[0;36mcaller\u001b[1;34m(*args, **kwargs)\u001b[0m\n\u001b[0;32m     56\u001b[0m             \u001b[1;32mreturn\u001b[0m \u001b[0mLogFilter\u001b[0m\u001b[1;33m(\u001b[0m\u001b[0meth_module\u001b[0m\u001b[1;33m=\u001b[0m\u001b[0mmodule\u001b[0m\u001b[1;33m,\u001b[0m \u001b[0mfilter_id\u001b[0m\u001b[1;33m=\u001b[0m\u001b[0merr\u001b[0m\u001b[1;33m.\u001b[0m\u001b[0mfilter_id\u001b[0m\u001b[1;33m)\u001b[0m\u001b[1;33m\u001b[0m\u001b[1;33m\u001b[0m\u001b[0m\n\u001b[0;32m     57\u001b[0m         \u001b[0mresult_formatters\u001b[0m\u001b[1;33m,\u001b[0m \u001b[0merror_formatters\u001b[0m \u001b[1;33m=\u001b[0m \u001b[0mresponse_formatters\u001b[0m\u001b[1;33m\u001b[0m\u001b[1;33m\u001b[0m\u001b[0m\n\u001b[1;32m---> 58\u001b[1;33m         \u001b[0mresult\u001b[0m \u001b[1;33m=\u001b[0m \u001b[0mw3\u001b[0m\u001b[1;33m.\u001b[0m\u001b[0mmanager\u001b[0m\u001b[1;33m.\u001b[0m\u001b[0mrequest_blocking\u001b[0m\u001b[1;33m(\u001b[0m\u001b[0mmethod_str\u001b[0m\u001b[1;33m,\u001b[0m \u001b[0mparams\u001b[0m\u001b[1;33m,\u001b[0m \u001b[0merror_formatters\u001b[0m\u001b[1;33m)\u001b[0m\u001b[1;33m\u001b[0m\u001b[1;33m\u001b[0m\u001b[0m\n\u001b[0m\u001b[0;32m     59\u001b[0m         \u001b[1;32mreturn\u001b[0m \u001b[0mapply_result_formatters\u001b[0m\u001b[1;33m(\u001b[0m\u001b[0mresult_formatters\u001b[0m\u001b[1;33m,\u001b[0m \u001b[0mresult\u001b[0m\u001b[1;33m)\u001b[0m\u001b[1;33m\u001b[0m\u001b[1;33m\u001b[0m\u001b[0m\n\u001b[0;32m     60\u001b[0m     \u001b[1;32mreturn\u001b[0m \u001b[0mcaller\u001b[0m\u001b[1;33m\u001b[0m\u001b[1;33m\u001b[0m\u001b[0m\n",
      "\u001b[1;32m~\\anaconda3\\envs\\ethereum\\lib\\site-packages\\web3\\manager.py\u001b[0m in \u001b[0;36mrequest_blocking\u001b[1;34m(self, method, params, error_formatters)\u001b[0m\n\u001b[0;32m    156\u001b[0m         \u001b[1;32mif\u001b[0m \u001b[1;34m\"error\"\u001b[0m \u001b[1;32min\u001b[0m \u001b[0mresponse\u001b[0m\u001b[1;33m:\u001b[0m\u001b[1;33m\u001b[0m\u001b[1;33m\u001b[0m\u001b[0m\n\u001b[0;32m    157\u001b[0m             \u001b[0mapply_error_formatters\u001b[0m\u001b[1;33m(\u001b[0m\u001b[0merror_formatters\u001b[0m\u001b[1;33m,\u001b[0m \u001b[0mresponse\u001b[0m\u001b[1;33m)\u001b[0m\u001b[1;33m\u001b[0m\u001b[1;33m\u001b[0m\u001b[0m\n\u001b[1;32m--> 158\u001b[1;33m             \u001b[1;32mraise\u001b[0m \u001b[0mValueError\u001b[0m\u001b[1;33m(\u001b[0m\u001b[0mresponse\u001b[0m\u001b[1;33m[\u001b[0m\u001b[1;34m\"error\"\u001b[0m\u001b[1;33m]\u001b[0m\u001b[1;33m)\u001b[0m\u001b[1;33m\u001b[0m\u001b[1;33m\u001b[0m\u001b[0m\n\u001b[0m\u001b[0;32m    159\u001b[0m         \u001b[1;32melif\u001b[0m \u001b[0mresponse\u001b[0m\u001b[1;33m[\u001b[0m\u001b[1;34m'result'\u001b[0m\u001b[1;33m]\u001b[0m \u001b[1;32mis\u001b[0m \u001b[1;32mNone\u001b[0m\u001b[1;33m:\u001b[0m\u001b[1;33m\u001b[0m\u001b[1;33m\u001b[0m\u001b[0m\n\u001b[0;32m    160\u001b[0m             \u001b[0mapply_error_formatters\u001b[0m\u001b[1;33m(\u001b[0m\u001b[0merror_formatters\u001b[0m\u001b[1;33m,\u001b[0m \u001b[0mresponse\u001b[0m\u001b[1;33m,\u001b[0m \u001b[0mparams\u001b[0m\u001b[1;33m)\u001b[0m\u001b[1;33m\u001b[0m\u001b[1;33m\u001b[0m\u001b[0m\n",
      "\u001b[1;31mValueError\u001b[0m: {'code': -32000, 'message': 'replacement transaction underpriced'}"
     ]
    }
   ],
   "source": [
    "send_tx(\"0x6ef4ae58135895c82bd476596dcbe60366b007f3ac9f3d747db840a79f538ab0\",'0x454453A0732CBE6c1009342E580Fd76a4F8EF1C7',60000000, ETH)"
   ]
  },
  {
   "cell_type": "code",
   "execution_count": 107,
   "metadata": {},
   "outputs": [
    {
     "output_type": "execute_result",
     "data": {
      "text/plain": [
       "<eth_account.signers.local.LocalAccount at 0x2279399d048>"
      ]
     },
     "metadata": {},
     "execution_count": 107
    }
   ],
   "source": [
    "signer_key2 = Account.from_key(\"0x6ef4ae58135895c82bd476596dcbe60366b007f3ac9f3d747db840a79f538ab0\")\n",
    "signer_key2"
   ]
  },
  {
   "cell_type": "code",
   "execution_count": 108,
   "metadata": {},
   "outputs": [
    {
     "output_type": "execute_result",
     "data": {
      "text/plain": [
       "SignedTransaction(rawTransaction=HexBytes('0xf86680843b9aca0082520894454453a0732cbe6c1009342e580fd76a4f8ef1c7834c4b40801ca07344bc5cba04936bd6f0fee455d0cea110de677a1ddb00f7f83c7ef5e9406506a00ca7051d46a843ee66235c2cb090ab9cf3f2417d9639364b23d4b61fe0bac014'), hash=HexBytes('0x875a441ebeedd492118e2d70762d59a0fb552f02e9799d72c3d40ab053093c59'), r=52137423215698823452916538716622341839262458043918361269497717703630684972294, s=5722852940828454913217883464321733570650707868219722970319674110283557290004, v=28)"
      ]
     },
     "metadata": {},
     "execution_count": 108
    }
   ],
   "source": [
    "signed_tx2 = signer_key2.sign_transaction(prep_tran)\n",
    "signed_tx2"
   ]
  },
  {
   "cell_type": "code",
   "execution_count": 109,
   "metadata": {},
   "outputs": [
    {
     "output_type": "error",
     "ename": "ValueError",
     "evalue": "{'code': -32000, 'message': 'already known'}",
     "traceback": [
      "\u001b[1;31m---------------------------------------------------------------------------\u001b[0m",
      "\u001b[1;31mValueError\u001b[0m                                Traceback (most recent call last)",
      "\u001b[1;32m<ipython-input-109-fd9384d1a35c>\u001b[0m in \u001b[0;36m<module>\u001b[1;34m\u001b[0m\n\u001b[1;32m----> 1\u001b[1;33m \u001b[0mresult2\u001b[0m \u001b[1;33m=\u001b[0m\u001b[0mw3\u001b[0m\u001b[1;33m.\u001b[0m\u001b[0meth\u001b[0m\u001b[1;33m.\u001b[0m\u001b[0msendRawTransaction\u001b[0m\u001b[1;33m(\u001b[0m\u001b[0msigned_tx2\u001b[0m\u001b[1;33m.\u001b[0m\u001b[0mrawTransaction\u001b[0m\u001b[1;33m)\u001b[0m\u001b[1;33m\u001b[0m\u001b[1;33m\u001b[0m\u001b[0m\n\u001b[0m\u001b[0;32m      2\u001b[0m \u001b[0mresult2\u001b[0m\u001b[1;33m\u001b[0m\u001b[1;33m\u001b[0m\u001b[0m\n",
      "\u001b[1;32m~\\anaconda3\\envs\\ethereum\\lib\\site-packages\\web3\\module.py\u001b[0m in \u001b[0;36mcaller\u001b[1;34m(*args, **kwargs)\u001b[0m\n\u001b[0;32m     56\u001b[0m             \u001b[1;32mreturn\u001b[0m \u001b[0mLogFilter\u001b[0m\u001b[1;33m(\u001b[0m\u001b[0meth_module\u001b[0m\u001b[1;33m=\u001b[0m\u001b[0mmodule\u001b[0m\u001b[1;33m,\u001b[0m \u001b[0mfilter_id\u001b[0m\u001b[1;33m=\u001b[0m\u001b[0merr\u001b[0m\u001b[1;33m.\u001b[0m\u001b[0mfilter_id\u001b[0m\u001b[1;33m)\u001b[0m\u001b[1;33m\u001b[0m\u001b[1;33m\u001b[0m\u001b[0m\n\u001b[0;32m     57\u001b[0m         \u001b[0mresult_formatters\u001b[0m\u001b[1;33m,\u001b[0m \u001b[0merror_formatters\u001b[0m \u001b[1;33m=\u001b[0m \u001b[0mresponse_formatters\u001b[0m\u001b[1;33m\u001b[0m\u001b[1;33m\u001b[0m\u001b[0m\n\u001b[1;32m---> 58\u001b[1;33m         \u001b[0mresult\u001b[0m \u001b[1;33m=\u001b[0m \u001b[0mw3\u001b[0m\u001b[1;33m.\u001b[0m\u001b[0mmanager\u001b[0m\u001b[1;33m.\u001b[0m\u001b[0mrequest_blocking\u001b[0m\u001b[1;33m(\u001b[0m\u001b[0mmethod_str\u001b[0m\u001b[1;33m,\u001b[0m \u001b[0mparams\u001b[0m\u001b[1;33m,\u001b[0m \u001b[0merror_formatters\u001b[0m\u001b[1;33m)\u001b[0m\u001b[1;33m\u001b[0m\u001b[1;33m\u001b[0m\u001b[0m\n\u001b[0m\u001b[0;32m     59\u001b[0m         \u001b[1;32mreturn\u001b[0m \u001b[0mapply_result_formatters\u001b[0m\u001b[1;33m(\u001b[0m\u001b[0mresult_formatters\u001b[0m\u001b[1;33m,\u001b[0m \u001b[0mresult\u001b[0m\u001b[1;33m)\u001b[0m\u001b[1;33m\u001b[0m\u001b[1;33m\u001b[0m\u001b[0m\n\u001b[0;32m     60\u001b[0m     \u001b[1;32mreturn\u001b[0m \u001b[0mcaller\u001b[0m\u001b[1;33m\u001b[0m\u001b[1;33m\u001b[0m\u001b[0m\n",
      "\u001b[1;32m~\\anaconda3\\envs\\ethereum\\lib\\site-packages\\web3\\manager.py\u001b[0m in \u001b[0;36mrequest_blocking\u001b[1;34m(self, method, params, error_formatters)\u001b[0m\n\u001b[0;32m    156\u001b[0m         \u001b[1;32mif\u001b[0m \u001b[1;34m\"error\"\u001b[0m \u001b[1;32min\u001b[0m \u001b[0mresponse\u001b[0m\u001b[1;33m:\u001b[0m\u001b[1;33m\u001b[0m\u001b[1;33m\u001b[0m\u001b[0m\n\u001b[0;32m    157\u001b[0m             \u001b[0mapply_error_formatters\u001b[0m\u001b[1;33m(\u001b[0m\u001b[0merror_formatters\u001b[0m\u001b[1;33m,\u001b[0m \u001b[0mresponse\u001b[0m\u001b[1;33m)\u001b[0m\u001b[1;33m\u001b[0m\u001b[1;33m\u001b[0m\u001b[0m\n\u001b[1;32m--> 158\u001b[1;33m             \u001b[1;32mraise\u001b[0m \u001b[0mValueError\u001b[0m\u001b[1;33m(\u001b[0m\u001b[0mresponse\u001b[0m\u001b[1;33m[\u001b[0m\u001b[1;34m\"error\"\u001b[0m\u001b[1;33m]\u001b[0m\u001b[1;33m)\u001b[0m\u001b[1;33m\u001b[0m\u001b[1;33m\u001b[0m\u001b[0m\n\u001b[0m\u001b[0;32m    159\u001b[0m         \u001b[1;32melif\u001b[0m \u001b[0mresponse\u001b[0m\u001b[1;33m[\u001b[0m\u001b[1;34m'result'\u001b[0m\u001b[1;33m]\u001b[0m \u001b[1;32mis\u001b[0m \u001b[1;32mNone\u001b[0m\u001b[1;33m:\u001b[0m\u001b[1;33m\u001b[0m\u001b[1;33m\u001b[0m\u001b[0m\n\u001b[0;32m    160\u001b[0m             \u001b[0mapply_error_formatters\u001b[0m\u001b[1;33m(\u001b[0m\u001b[0merror_formatters\u001b[0m\u001b[1;33m,\u001b[0m \u001b[0mresponse\u001b[0m\u001b[1;33m,\u001b[0m \u001b[0mparams\u001b[0m\u001b[1;33m)\u001b[0m\u001b[1;33m\u001b[0m\u001b[1;33m\u001b[0m\u001b[0m\n",
      "\u001b[1;31mValueError\u001b[0m: {'code': -32000, 'message': 'already known'}"
     ]
    }
   ],
   "source": [
    "result2 =w3.eth.sendRawTransaction(signed_tx2.rawTransaction)\n",
    "result2"
   ]
  },
  {
   "cell_type": "code",
   "execution_count": 110,
   "metadata": {},
   "outputs": [],
   "source": [
    "def sign_tx(sender_acc_priv_key,recipient_address,amount,coin):\n",
    "    if coin==ETH:\n",
    "        prep_tran = create_tx(sender_acc_priv_key,recipient_address,amount,coin)\n",
    "        signed_tx = signer_key.sign_transaction(prep_tran)\n",
    "        return signed_tx"
   ]
  },
  {
   "cell_type": "code",
   "execution_count": 111,
   "metadata": {},
   "outputs": [],
   "source": [
    "sign_eth_tx15 = sign_tx(\"0x6ef4ae58135895c82bd476596dcbe60366b007f3ac9f3d747db840a79f538ab0\",'0x454453A0732CBE6c1009342E580Fd76a4F8EF1C7',60000000, ETH)"
   ]
  },
  {
   "cell_type": "code",
   "execution_count": 112,
   "metadata": {},
   "outputs": [
    {
     "output_type": "execute_result",
     "data": {
      "text/plain": [
       "SignedTransaction(rawTransaction=HexBytes('0xf86780843b9aca0082520894454453a0732cbe6c1009342e580fd76a4f8ef1c78403938700801ba0c5d54cc6f14698d1ef1e63388eb51125e7d19317f4175393f0a4f1c4bd73dda0a04cb14679ae2c0e1b856568dd018f9f96df2f6832742b046a9b84efd9cd2c42b3'), hash=HexBytes('0xd683a8f634a55536937b0d217f513d111b6884e4a6f6267b665bdd4bc5135f12'), r=89482499491902374744656192973280332529332765569314814996394876851015050845600, s=34688994825534303577746129275995277293020852335345423469318159840281319195315, v=27)"
      ]
     },
     "metadata": {},
     "execution_count": 112
    }
   ],
   "source": [
    "sign_eth_tx15"
   ]
  },
  {
   "cell_type": "code",
   "execution_count": 113,
   "metadata": {},
   "outputs": [],
   "source": [
    "def send_tx_id(sender_acc_priv_key,recipient_address,amount,coin):\n",
    "    if coin==ETH:\n",
    "        signed_tx = sign_tx(sender_acc_priv_key,recipient_address,amount,coin)\n",
    "        broadcast_tx = w3.eth.sendRawTransaction(signed_tx2.rawTransaction)\n",
    "        return broadcast_tx"
   ]
  },
  {
   "cell_type": "code",
   "execution_count": 114,
   "metadata": {},
   "outputs": [
    {
     "output_type": "error",
     "ename": "ValueError",
     "evalue": "{'code': -32000, 'message': 'already known'}",
     "traceback": [
      "\u001b[1;31m---------------------------------------------------------------------------\u001b[0m",
      "\u001b[1;31mValueError\u001b[0m                                Traceback (most recent call last)",
      "\u001b[1;32m<ipython-input-114-9011e5003669>\u001b[0m in \u001b[0;36m<module>\u001b[1;34m\u001b[0m\n\u001b[1;32m----> 1\u001b[1;33m \u001b[0mkatchcoin_trans_25\u001b[0m \u001b[1;33m=\u001b[0m \u001b[0msend_tx_id\u001b[0m\u001b[1;33m(\u001b[0m\u001b[1;34m\"0x6ef4ae58135895c82bd476596dcbe60366b007f3ac9f3d747db840a79f538ab0\"\u001b[0m\u001b[1;33m,\u001b[0m\u001b[1;34m'0x454453A0732CBE6c1009342E580Fd76a4F8EF1C7'\u001b[0m\u001b[1;33m,\u001b[0m\u001b[1;36m700000000\u001b[0m\u001b[1;33m,\u001b[0m \u001b[0mETH\u001b[0m\u001b[1;33m)\u001b[0m\u001b[1;33m\u001b[0m\u001b[1;33m\u001b[0m\u001b[0m\n\u001b[0m",
      "\u001b[1;32m<ipython-input-113-7f776359d0f8>\u001b[0m in \u001b[0;36msend_tx_id\u001b[1;34m(sender_acc_priv_key, recipient_address, amount, coin)\u001b[0m\n\u001b[0;32m      2\u001b[0m     \u001b[1;32mif\u001b[0m \u001b[0mcoin\u001b[0m\u001b[1;33m==\u001b[0m\u001b[0mETH\u001b[0m\u001b[1;33m:\u001b[0m\u001b[1;33m\u001b[0m\u001b[1;33m\u001b[0m\u001b[0m\n\u001b[0;32m      3\u001b[0m         \u001b[0msigned_tx\u001b[0m \u001b[1;33m=\u001b[0m \u001b[0msign_tx\u001b[0m\u001b[1;33m(\u001b[0m\u001b[0msender_acc_priv_key\u001b[0m\u001b[1;33m,\u001b[0m\u001b[0mrecipient_address\u001b[0m\u001b[1;33m,\u001b[0m\u001b[0mamount\u001b[0m\u001b[1;33m,\u001b[0m\u001b[0mcoin\u001b[0m\u001b[1;33m)\u001b[0m\u001b[1;33m\u001b[0m\u001b[1;33m\u001b[0m\u001b[0m\n\u001b[1;32m----> 4\u001b[1;33m         \u001b[0mbroadcast_tx\u001b[0m \u001b[1;33m=\u001b[0m \u001b[0mw3\u001b[0m\u001b[1;33m.\u001b[0m\u001b[0meth\u001b[0m\u001b[1;33m.\u001b[0m\u001b[0msendRawTransaction\u001b[0m\u001b[1;33m(\u001b[0m\u001b[0msigned_tx2\u001b[0m\u001b[1;33m.\u001b[0m\u001b[0mrawTransaction\u001b[0m\u001b[1;33m)\u001b[0m\u001b[1;33m\u001b[0m\u001b[1;33m\u001b[0m\u001b[0m\n\u001b[0m\u001b[0;32m      5\u001b[0m         \u001b[1;32mreturn\u001b[0m \u001b[0mbroadcast_tx\u001b[0m\u001b[1;33m\u001b[0m\u001b[1;33m\u001b[0m\u001b[0m\n",
      "\u001b[1;32m~\\anaconda3\\envs\\ethereum\\lib\\site-packages\\web3\\module.py\u001b[0m in \u001b[0;36mcaller\u001b[1;34m(*args, **kwargs)\u001b[0m\n\u001b[0;32m     56\u001b[0m             \u001b[1;32mreturn\u001b[0m \u001b[0mLogFilter\u001b[0m\u001b[1;33m(\u001b[0m\u001b[0meth_module\u001b[0m\u001b[1;33m=\u001b[0m\u001b[0mmodule\u001b[0m\u001b[1;33m,\u001b[0m \u001b[0mfilter_id\u001b[0m\u001b[1;33m=\u001b[0m\u001b[0merr\u001b[0m\u001b[1;33m.\u001b[0m\u001b[0mfilter_id\u001b[0m\u001b[1;33m)\u001b[0m\u001b[1;33m\u001b[0m\u001b[1;33m\u001b[0m\u001b[0m\n\u001b[0;32m     57\u001b[0m         \u001b[0mresult_formatters\u001b[0m\u001b[1;33m,\u001b[0m \u001b[0merror_formatters\u001b[0m \u001b[1;33m=\u001b[0m \u001b[0mresponse_formatters\u001b[0m\u001b[1;33m\u001b[0m\u001b[1;33m\u001b[0m\u001b[0m\n\u001b[1;32m---> 58\u001b[1;33m         \u001b[0mresult\u001b[0m \u001b[1;33m=\u001b[0m \u001b[0mw3\u001b[0m\u001b[1;33m.\u001b[0m\u001b[0mmanager\u001b[0m\u001b[1;33m.\u001b[0m\u001b[0mrequest_blocking\u001b[0m\u001b[1;33m(\u001b[0m\u001b[0mmethod_str\u001b[0m\u001b[1;33m,\u001b[0m \u001b[0mparams\u001b[0m\u001b[1;33m,\u001b[0m \u001b[0merror_formatters\u001b[0m\u001b[1;33m)\u001b[0m\u001b[1;33m\u001b[0m\u001b[1;33m\u001b[0m\u001b[0m\n\u001b[0m\u001b[0;32m     59\u001b[0m         \u001b[1;32mreturn\u001b[0m \u001b[0mapply_result_formatters\u001b[0m\u001b[1;33m(\u001b[0m\u001b[0mresult_formatters\u001b[0m\u001b[1;33m,\u001b[0m \u001b[0mresult\u001b[0m\u001b[1;33m)\u001b[0m\u001b[1;33m\u001b[0m\u001b[1;33m\u001b[0m\u001b[0m\n\u001b[0;32m     60\u001b[0m     \u001b[1;32mreturn\u001b[0m \u001b[0mcaller\u001b[0m\u001b[1;33m\u001b[0m\u001b[1;33m\u001b[0m\u001b[0m\n",
      "\u001b[1;32m~\\anaconda3\\envs\\ethereum\\lib\\site-packages\\web3\\manager.py\u001b[0m in \u001b[0;36mrequest_blocking\u001b[1;34m(self, method, params, error_formatters)\u001b[0m\n\u001b[0;32m    156\u001b[0m         \u001b[1;32mif\u001b[0m \u001b[1;34m\"error\"\u001b[0m \u001b[1;32min\u001b[0m \u001b[0mresponse\u001b[0m\u001b[1;33m:\u001b[0m\u001b[1;33m\u001b[0m\u001b[1;33m\u001b[0m\u001b[0m\n\u001b[0;32m    157\u001b[0m             \u001b[0mapply_error_formatters\u001b[0m\u001b[1;33m(\u001b[0m\u001b[0merror_formatters\u001b[0m\u001b[1;33m,\u001b[0m \u001b[0mresponse\u001b[0m\u001b[1;33m)\u001b[0m\u001b[1;33m\u001b[0m\u001b[1;33m\u001b[0m\u001b[0m\n\u001b[1;32m--> 158\u001b[1;33m             \u001b[1;32mraise\u001b[0m \u001b[0mValueError\u001b[0m\u001b[1;33m(\u001b[0m\u001b[0mresponse\u001b[0m\u001b[1;33m[\u001b[0m\u001b[1;34m\"error\"\u001b[0m\u001b[1;33m]\u001b[0m\u001b[1;33m)\u001b[0m\u001b[1;33m\u001b[0m\u001b[1;33m\u001b[0m\u001b[0m\n\u001b[0m\u001b[0;32m    159\u001b[0m         \u001b[1;32melif\u001b[0m \u001b[0mresponse\u001b[0m\u001b[1;33m[\u001b[0m\u001b[1;34m'result'\u001b[0m\u001b[1;33m]\u001b[0m \u001b[1;32mis\u001b[0m \u001b[1;32mNone\u001b[0m\u001b[1;33m:\u001b[0m\u001b[1;33m\u001b[0m\u001b[1;33m\u001b[0m\u001b[0m\n\u001b[0;32m    160\u001b[0m             \u001b[0mapply_error_formatters\u001b[0m\u001b[1;33m(\u001b[0m\u001b[0merror_formatters\u001b[0m\u001b[1;33m,\u001b[0m \u001b[0mresponse\u001b[0m\u001b[1;33m,\u001b[0m \u001b[0mparams\u001b[0m\u001b[1;33m)\u001b[0m\u001b[1;33m\u001b[0m\u001b[1;33m\u001b[0m\u001b[0m\n",
      "\u001b[1;31mValueError\u001b[0m: {'code': -32000, 'message': 'already known'}"
     ]
    }
   ],
   "source": [
    "katchcoin_trans_25 = send_tx_id(\"0x6ef4ae58135895c82bd476596dcbe60366b007f3ac9f3d747db840a79f538ab0\",'0x454453A0732CBE6c1009342E580Fd76a4F8EF1C7',700000000, ETH)"
   ]
  },
  {
   "cell_type": "code",
   "execution_count": null,
   "metadata": {},
   "outputs": [],
   "source": []
  }
 ]
}